:020000040800F2
:1000000090080020650100081F210008291A000837
:1000100000000000000000000000000000000000E0
:100020000000000000000000000000002521000882
:1000300000000000000000002321000859210008F2
:100040007701000800000000770100087701000830
:1000500077010008770100087701000877010008A0
:100060000000000077010008770100087701000810
:100070007701000877010008770100080000000000
:100080007701000800000000000000007701000870
:1000900000000000770100087701000877010008E0
:1000A0007701000877010008770100087701000850
:1000B000FD27000800000000000000000000000014
:1000C00000F002F800F03EF80CA030C80838241800
:1000D0002D18A246671EAB4654465D46AC4201D180
:1000E00000F030F87E460F3E0FCCB6460126334274
:1000F00000D0FB1AA246AB4633431847F82800004D
:1001000018290000103A02D378C878C1FAD85207EB
:1001100001D330C830C101D504680C6070470000BD
:100120000023002400250026103A01D378C1FBD813
:10013000520700D330C100D50B6070471FB51FBDFB
:1001400010B510BD00F0FEF81146FFF7F7FF02F002
:10015000E5FB00F016F903B4FFF7F2FF03BC00F073
:1001600017F900000748804707480047FEE7FEE709
:10017000FEE7FEE7FEE7FEE704480549054A064BB1
:1001800070470000A1220008C10000089002002072
:1001900090080020900400209004002001E004C09A
:1001A000091F0429FBD28B0701D50280801CC907D7
:1001B00000D00270704700290BD0C30702D0027034
:1001C000401C491E022904D3830702D50280801CEB
:1001D000891EE3E70022EEE70022DFE700220309A1
:1001E0008B422CD3030A8B4211D300239C464EE052
:1001F00003460B433CD4002243088B4231D303090E
:100200008B421CD3030A8B4201D394463FE0C309BF
:100210008B4201D3CB01C01A524183098B4201D3D7
:100220008B01C01A524143098B4201D34B01C01AC2
:10023000524103098B4201D30B01C01A5241C3083A
:100240008B4201D3CB00C01A524183088B4201D3A9
:100250008B00C01A524143088B4201D34B00C01A95
:100260005241411A00D201465241104670475DE0AA
:10027000CA0F00D04942031000D34042534000222D
:100280009C4603098B422DD3030A8B4212D3FC22D6
:10029000890112BA030A8B420CD3890192118B4255
:1002A00008D3890192118B4204D389013AD092116B
:1002B00000E08909C3098B4201D3CB01C01A524126
:1002C00083098B4201D38B01C01A524143098B42EF
:1002D00001D34B01C01A524103098B4201D30B01D8
:1002E000C01A5241C3088B4201D3CB00C01A5241FD
:1002F00083088B4201D38B00C01A5241D9D24308E4
:100300008B4201D34B00C01A5241411A00D2014620
:10031000634652415B10104601D34042002B00D58A
:100320004942704763465B1000D3404201B500204C
:10033000C046C04602BD70477047704700487047CE
:100340002C0200207546FFF7F9FFAE46050069460E
:100350005346C008C000854618B020B5FFF70CFF13
:1003600060BC00274908B6460026C0C5C0C5C0C548
:10037000C0C5C0C5C0C5C0C5C0C5403D49008D464B
:1003800070470446C046C0462046FFF7E4FE70476B
:1003900001491820ABBEFEE72600020010B500217F
:1003A000027843784E4C23768378A37223461B7ED3
:1003B000002B06D0012B08D0022B0AD0032B10D122
:1003C0000BE00423464C63750FE00323444C637534
:1003D0000BE00223424C637507E00123404C637538
:1003E00003E000233E4C637500BF00BF002108E01E
:1003F00080231340002B00D005E053061A0E4B1C3F
:10040000D9B20829F4DB00BF0B0002F037FA082745
:100410003805164951595A60314B1B78002B03D1CE
:1004200001232F4CE37102E000232D4CE3710023E4
:100430002B4C6375638363764FE0294B5B78002B0D
:1004400003D10223264CE37102E00023244CE37124
:100450000023234C6375638363763EE0204B9B78D7
:10046000002B03D101231E4CA37102E000231C4C7E
:10047000A37100231A4C6375638363762DE0184BD8
:10048000DB78002B03D10223154CA37102E000237B
:10049000134CA3710023124C6375638363761CE0D5
:1004A00001230F4C2372002363756383637614E08A
:1004B00002230B4C237200236375638363760CE085
:1004C0000BE00023064CE371A371237205E00023C7
:1004D000034CE371A371237200BF00BF10BD000085
:1004E0000C02002000B502F09DF904480068006885
:1004F0002021084301490968086000BD3000002040
:1005000072B600BFFEE7000010B51B48407B012813
:1005100030D119482038406A0078FA2824D1164A88
:10052000927A521ED1B2144A203A506A01F0FCFD70
:10053000114920394A6A498D491E515C884213D1BC
:100540000D482038408D06280ED10B492039496AC4
:10055000881CFFF723FF08482038428D7D23DB00ED
:10056000416A064801F0DCF9002103482038418542
:100570002030417310BD0000E40000203000002056
:100580000146002901D1012070472520405C022846
:1005900008D00420C86300BF00222420425400BFBA
:1005A0000120F1E708680068400840000A68106010
:1005B000086800680E2290430A681060486C006862
:1005C000FF22013290434A6C1060124840681C239D
:1005D0000A6C1A400123934018430E4A50608A6CFB
:1005E000C86C5060086D002809D0086D0068FF22B3
:1005F000013290430A6D10604A6D886D506001228F
:100600002520425400BF00222420425400BF002075
:10061000BAE700000000024070B50446002525201E
:10062000005D022803D00420E06301253AE0206841
:1006300000684008400021680860206800680E21BA
:10064000884321680860606C0068FF21013188439D
:10065000616C0860144840681C22216C1140012222
:100660008A40104310494860A16CE06C4860206DDE
:10067000002809D0206D0068FF2101318843216DD9
:100680000860616DA06D486001212520015500BF03
:1006900000212420015500BFA06B002802D0204675
:1006A000A16B8847284670BD0000024070B5034624
:1006B0000A460021D7E001268E4014683440002C01
:1006C00073D01579AD07AD0F012D04D01579AD07A5
:1006D000AD0F022D18D198684E000325B54006468F
:1006E000AE4330464E00D568B54028439860586800
:1006F00001258D400646AE433046102655683540EC
:100700002D098D40284358601579AD07AD0F032D95
:100710000BD0D8684E000325B5400646AE433046A0
:100720004E009568B5402843D8601579AD07AD0FE8
:10073000022D15D1CD08AE001D462035A8594D0714
:10074000EE0E0F25B5400646AE4330464E07F60E78
:100750001569B5402843CD08AD001E4620367051BE
:1007600018684E000325B5400646AE43304615795D
:10077000AD07AD0F4E00B540284318600326360480
:1007800055683540002D6DD03A4D8E08B600A859F9
:100790008D07EE0E0F25B5400646AE4330460525C3
:1007A0002D07AB4202D1002510E05BE0324DAB4299
:1007B00001D101250AE0314DAB4201D1022505E00E
:1007C0002F4DAB4201D1032500E005258E07F60E23
:1007D000B5402843274D8E08B600A851254D603DF1
:1007E00028680546A5432846012636055568354044
:1007F000002D02D00546254328461E4D603D286049
:1008000068680546A54328460126760555683540A3
:10081000002D02D0054625432846164D603D6860F0
:10082000144D203568680546A54328460126760400
:1008300055683540002D02D00546254328460D4D0C
:100840002035686028680546A543284601263604F9
:1008500055683540002D02D0054625432846054DF4
:1008600020352860491C1568CD40002D00D022E7B6
:1008700070BD0000601802400004005000080050E5
:10088000000C0050024613690B40002B01D00120E0
:1008900000E00020704710B5426913460B401B046E
:1008A0000C4694432343836110BD002A01D081612B
:1008B00000E0816270470000014800687047000056
:1008C0001000002070B50446002C01D1012070BD3D
:1008D0001848216808601848216808602168606825
:1008E00048602168A0688860FFF7E6FF05460CE0D5
:1008F000FFF7E2FF401B312807D92068C068400796
:10090000400F002801D00320E1E72068C0684007BD
:10091000400F0028ECD120680169E068814203D0D3
:100920002168E068086102E004482168086000204E
:10093000CDE70000CCCC000055550000AAAA00006D
:10094000014602480A68106000207047AAAA000009
:100950000348006803490978401801490860704756
:10096000100000201800002010B50024084800687E
:10097000FF210131084306490860032000F00AF80E
:10098000002801D0012401E000F034F8204610BD19
:1009900000200240F8B504460025134800780028DE
:1009A0001ED0114801787D20C000FFF717FC0746D4
:1009B00039460E480068FFF711FC064600F0D0FCEF
:1009C00000280BD1042C07D200222146401E00F043
:1009D00045F80748046004E0012502E0012500E035
:1009E00001252846F8BD0000180000201C0000204A
:1009F0001400002008B500BF0E480068012108431C
:100A00000C49086008460068C007C00F009000BF8E
:100A100000BF00BF07484038C06B8905084305493F
:100A20004039C8630846C06B09040840009000BF05
:100A300000BF08BD401002400146002909DB00BF8D
:100A400000BFCB06DB0E01229A40034B1A6000BFA9
:100A500000BF00BF7047000000E100E070B5044631
:100A60000D4616462946204601F016FF70BD0000CF
:100A700070B50446114800680321490288432043A9
:100A80000E4908604815844216D10D4909680622AE
:100A9000514308460B49FFF7A1FB451C05E0002D1B
:100AA00001D06D1E01E0032070BD044840690121A2
:100AB000890208408842F2D00020F5E7007000402B
:100AC0001C00002040420F0070B504460D46002C6B
:100AD00001D1012070BD6B4800684007400FA8425B
:100AE00018D268480068C008C000284365490860FB
:100AF000FFF7E2FE064607E0FFF7DEFE801B6249D5
:100B0000884201D90320E5E75E4800684007400FAE
:100B1000A842F1D1022120680840022815D1042101
:100B200020680840042807D1584880680721090335
:100B30008843401855498860544880680F2109024D
:100B40008843A1680843514988602078C007C00FD6
:100B5000002854D06068012808D14C480068012161
:100B60004904084000282ED10120B3E7606802281C
:100B700008D146480068012149060840002822D1D2
:100B80000120A7E76068002808D1404800680121DB
:100B900089020840002816D101209BE760680328DD
:100BA00008D13A484030006A0221084000280AD1A2
:100BB00001208FE735484030C069022108400028F5
:100BC00001D1012086E731488068C008C000616813
:100BD00008432E498860FFF76FFE064607E0FFF7DF
:100BE0006BFE801B2849884201D9032072E7274801
:100BF0008068382108406168C9008842EFD12148E7
:100C000000684007400FA84218D91E480068C00875
:100C1000C00028431B490860FFF74EFE064607E068
:100C2000FFF74AFE801B1849884201D9032051E78B
:100C3000144800684007400FA842F1D10421206801
:100C40000840042808D11148806807210903884317
:100C5000E16808430D49886000F03AF80B4989685B
:100C60000F2212021140090A8900094A515CC90683
:100C7000C90EC8400749086007480068FFF78AFEA8
:100C800028E7000000200240881300000010024006
:100C9000942900081C00002014000020014800686E
:100CA000704700001C00002000B5FFF7F7FF064961
:100CB0008968072212031140090B8900034A515C1D
:100CC000C906C90EC84000BD00100240D429000862
:100CD000FEB5354880683821084000280DD13248DB
:100CE000006809020840C10A0120884000902F488E
:100CF0000099FFF773FA044654E02B4880683821C6
:100D00000840082801D12A4C4CE027488068382147
:100D10000840102834D12448C0688607B60F2248FE
:100D2000C068702108400009401C0190022E0FD0BD
:100D3000032E0CD11E480199FFF750FA1A49C968D1
:100D40007F2212021140090A484305460DE000BF08
:100D500016480199FFF742FA1349C9687F22120227
:100D60001140090A4843054600BF00BF0E48C0684D
:100D7000400F471C39462846FFF730FA044611E079
:100D80000948806838210840202801D1840209E000
:100D90000548806838210840182802D17D242402A3
:100DA00000E000242046FEBD001002400024F400B4
:100DB00000127A00FEB50446002C01D10120FEBDD0
:100DC0002078C007C00F00286FD0F7488768382107
:100DD0000F40C0688607B60F102F01D1032E01D037
:100DE000082F0BD1F0480068012149040840002871
:100DF0005BD06068002858D10120E0E700BF0121E6
:100E000009046068884205D1E74800680843E6495C
:100E1000086021E005210904606888420ED1E2489B
:100E20000068012189040843DF490860084600681A
:100E3000012109040843DC4908600DE0DA48006834
:100E4000012109048843D849086008460068012147
:100E500089048843D449086000BF6068002812D024
:100E6000FFF72AFD054606E0FFF726FD401B642834
:100E700001D90320A3E7CC480068012149040840B8
:100E80000028F1D011E0FFF717FD054606E0FFF757
:100E900013FD401B642801D9032090E7C248006875
:100EA0000121490408400028F1D1022120680840AE
:100EB000022873D1BC488068382108400746BA48E8
:100EC000C0688607B60F102F01D1022E01D0002F67
:100ED00036D1B5480068012189020840002804D0B5
:100EE000E068002801D1012069E7AF4840687F2110
:100EF00009028843616909020843AB494860002F31
:100F000016D1084600680721C902884321690843B1
:100F1000A5490860084600680722D2021040C20AAC
:100F2000012090400146A148FFF758F9A049086008
:100F3000A0480068FFF72EFD002849D001203EE7B9
:100F4000E06800282BD0984800680721C902884330
:100F500021690843944908600846006889150843D8
:100F600091490860FFF7A8FC054606E0FFF7A4FCDE
:100F7000401B022801D9032021E78B48006801218A
:100F8000890208400028F1D0874840687F21090283
:100F900088436169090208438349486018E0824830
:100FA0000068FF21013188437F490860FFF784FC16
:100FB000054606E0FFF780FC401B022801D903200C
:100FC000FDE6794800680121890208400028F1D136
:100FD000082120680840082849D1734880683821D2
:100FE000084018280BD170484030006A02210840A0
:100FF00000283CD0A069002839D10120DFE6A06993
:1010000000281AD068484030006A01210843664928
:1010100040310862FFF750FC054606E0FFF74CFC44
:10102000401B022801D90320C9E65F484030006A0E
:10103000022108400028F1D019E05B484030006AE6
:1010400040084000584940310862FFF735FC05462A
:1010500006E0FFF731FC401B022801D90320AEE671
:1010600051484030006A022108400028F1D1042193
:101070002068084004287CD1002001904A488068FC
:101080003821084020280BD147484030C069022150
:10109000084000286ED0A06800286BD101208EE6A1
:1010A0004148C06B010F01208843002810D000BFC9
:1010B0003D48C06B0121090708433B49C863084606
:1010C000C06B09040840009000BF00BF01200190E0
:1010D00039480068FF2101310840002816D1364800
:1010E0000068084334490860FFF7E6FB054606E060
:1010F000FFF7E2FB401B022801D903205FE62E48E0
:101100000068FF21013108400028F1D000BFA0682D
:10111000012808D124484030C069012108432249F0
:101120004031C86120E0A06805280FD11E4840303A
:10113000C069042108431C494031C8610846C069A0
:101140000121084318494031C8610DE0164840307C
:10115000C0694108490014484030C161C069042198
:10116000884311494031C86100BFA068002816D0EB
:1011700001E040E03EE0FFF79FFB054607E0FFF798
:101180009BFB401B0D49884201D9032017E6064806
:101190004030C069022108400028F0D01EE0FFF76F
:1011A0008BFB054614E00000001002400024F40010
:1011B0001C00002014000020007000408813000074
:1011C000FFF77AFB401B6249884201D90320F6E50C
:1011D0006048C069022108400028F1D10198012827
:1011E00008D15C484038C06B012109078843594940
:1011F0004039C86300BFE06900285AD055484038DC
:1012000080683821084010287AD0E069022851D13E
:101210005048403800680121090688434D4940394B
:101220000860FFF749FB054606E0FFF745FB401B5A
:10123000022801D90320C2E5464840380068012150
:10124000490608400028F0D1616A206A0843A16A73
:1012500009020843E16A0843216B08433D494039CC
:10126000C9683D4A114008433A494039C8600846B8
:1012700000680121090608433649403908600846DC
:10128000C0680904084333494039C860FFF714FBBC
:10129000054606E0FFF710FB401B022801D903209A
:1012A0008DE52C4840380068012149060840002897
:1012B000F0D04AE0274840380068012109068843F9
:1012C000244940390860FFF7F7FA054606E0FFF7C2
:1012D000F3FA401B022801D9032070E51D4840386D
:1012E00000680121490608400028F0D1194840381B
:1012F000C0681A49084017494039C86025E0FFE72F
:10130000E069012800D15AE512484038C668B107A3
:10131000890F206A814216D170203040616A88426C
:1013200011D17F2000023040A16A090288420AD10F
:101330001F2040043040E16A884204D1710F490700
:10134000206B814201D0012039E5002037E5000003
:1013500088130000401002408C80C11FFCFFFEEF8C
:1013600070B504462546681E0949884201D9012006
:101370000CE0681E074948610321081F01F08CFA40
:1013800000200449886107200861002070BD00002A
:10139000FFFFFF0000E000E07047704770477047B4
:1013A00070470000F0B585B004462068C569206824
:1013B000066820688768FE48284003900398002844
:1013C00014D120202840002810D0202030400028B0
:1013D00004D1012000073840002807D0606F0028A2
:1013E00002D02046616F884705B0F0BD0398002801
:1013F0007ED0F0483840002803D1EF483040002824
:10140000F6D0E807C00F00280DD0FF200130304093
:10141000002808D00120216808629020005901218D
:101420000843902108510220284000280CD0F807DA
:10143000C00F002808D002202168086290200059BF
:1014400004210843902108510420284000280CD092
:10145000F807C00F002808D00420216808629020F7
:1014600000590221084390210851082028400028F3
:1014700010D020203040002803D1CE48384000282A
:1014800008D00820216808629020005908210843EC
:10149000902108510120C002284000280ED00120D0
:1014A00080063040002809D00120C002216808626F
:1014B0009020005920210843902108519020005984
:1014C00000285ED02020284000280ED02020304068
:1014D000002804D1012000073840002805D0606FA3
:1014E000002802D02046616F88479020005900E014
:1014F00048E002902068806840210840402804D0DD
:10150000282102980840002835D0204600F0CCFF62
:101510002068806840210840402828D100BF01F0A1
:10152000F7F90190012001F0F6F920688068402168
:10153000884321688860019801F0EDF900BF8020A0
:10154000005900280FD09D498020005981638021D7
:101550000859FFF761F8002813D08022105912595A
:10156000916B88470DE02046FFF71AFF09E02046FF
:10157000FFF716FF05E02046FFF712FF002190203D
:10158000015131E7E06E01287ED11020284000286B
:101590007AD0102030400028FAD01020216808624C
:1015A000206880684021084040286ED18020005982
:1015B0000068406880B20190019800286DD05C20DE
:1015C000015B0198814268DD5E210198085380200B
:1015D0000059006800682021084000284DD100BF54
:1015E00001F096F90090012001F095F9206800685B
:1015F000FF210131884321680860009801F08BF9D0
:1016000000BF00BF01F084F90090012001F083F9D0
:10161000206880684008400021688860009801F0D8
:101620007AF900BF00BF01F073F90090012001F0CA
:1016300072F920688068402188432168886000989A
:1016400001F069F900BF20218C2001510020E066E3
:1016500000BF01F05DF90090012001F05CF9206805
:1016600000681021884321680860009801F053F950
:1016700000BF80210859FEF783FF022020675C200D
:10168000025B5E20005B02E06CE01BE005E0101AEC
:1016900081B22046FFF780FE13E05C20015B0198D9
:1016A00081420ED180200059006800682021084046
:1016B000202806D1022020675C20015B2046FFF72E
:1016C0006BFE91E65C20015B5E20005B081A80B235
:1016D00001905E20005B002843D00198002840D094
:1016E00000BF01F015F90090012001F014F9206805
:1016F0000068FF212131884321680860009801F0CB
:101700000AF900BF00BF01F003F90090012001F0C9
:1017100002F9206880682749C94308402168886029
:10172000009801F0F8F800BF20218C200151002022
:10173000E066606700BF01F0EBF80090012001F067
:10174000EAF8206800681021884321680860009842
:1017500001F0E1F800BF0220206720460199FFF761
:101760001BFE41E601200005284000280CD0012086
:1017700080053840002807D0012000052168086254
:101780002046FFF70CFE2FE680202840002817D0C7
:1017900080203040002804D10120C00538400028B6
:1017A0000ED0A06F002802D02046A16F88471BE60C
:1017B0000F08000001000010200100049924000817
:1017C00040202840002807D040203040002803D087
:1017D000204600F0ABFE07E60120C00528400028A7
:1017E00008D0012080073040002803D02046FFF7B2
:1017F000D5FDF9E5012000062840002807D0F00FAC
:10180000C007002803D02046FFF7C7FDECE500BF66
:10181000EAE510B50446002C01D1012010BDA069F5
:10182000002800D000E000BF88200059002805D122
:10183000002184200155204600F02CF82421882026
:101840000151206800684008400021680860A06AD3
:10185000002802D0204600F024FD204600F082FE41
:10186000012800D1DAE7206840680921C9028843CD
:1018700021684860206880682A2188432168886040
:10188000206800680121084321680860204600F0B4
:1018900081FDC3E710B586B00446142101A8FEF708
:1018A0009BFC1D492068884233D100BF1B48C06B98
:1018B0000121490408431949C8630846C06B012146
:1018C00049040840009000BF00BF00BF1348406BB0
:1018D00001210843114948630846406BC007C00F07
:1018E000009000BF00BF0C20019002200290002059
:1018F000039004900120059001A905200007FEF740
:10190000D5FE002211461C20FFF7A8F81C20FFF787
:1019100093F806B010BD00000044004000100240E3
:10192000FFB583B004460D4617468820005920288D
:1019300077D1002D01D0002F02D1012007B0F0BDDA
:1019400001210903A068884208D12069002805D137
:10195000E807C00F002801D00120EFE70021902008
:101960000151212188200151FEF7A6FF019054204A
:1019700007535620075301210903A068884205D167
:101980002069002802D10026029502E02E460020A0
:1019900002902DE006980090002280212046019BB5
:1019A00000F0D2FE002804D020218820015103201D
:1019B000C4E7002E09D102980088C005C00D216837
:1019C00088620298801C029003E030782168886267
:1019D000761C8820005921210840212806D1562054
:1019E000005B401E81B25620015301E00120A5E7B3
:1019F0005620005B0028CDD106980090002240219F
:101A00002046019B00F0A0FE002805D02021882060
:101A10000151032092E704E0202188200151002099
:101A20008CE702208AE7704700BFFEE700B587B069
:101A3000142102A8FEF7D0FB00BF3C48406B0221F6
:101A400008433A4948630846406B02210840019028
:101A500000BF00BF00BF3548406B04210843334935
:101A600048630846406B04210840019000BF00BF56
:101A700000BF2E48406B012108432C4948630846AB
:101A8000406BC007C00F019000BF00BF002288213B
:101A90002748FEF70AFF0022032189032548FEF7A5
:101AA00004FF0022032105200007FEF7FEFE0122AD
:101AB000110305200007FEF7F8FE882002900120A0
:101AC000039000200490059002A91948FEF7EEFD4E
:101AD00003208003029001200390002004900590D1
:101AE00002A91448FEF7E2FD13480290012003907A
:101AF00000200490059002A905200007FEF7D6FDFE
:101B00008F200001029000200390049002A905207C
:101B10000007FEF7CBFD0120029000200390049007
:101B200002A90348FEF7C2FD07B000BD0010024045
:101B300000040050000800500310000010B50848D1
:101B4000084908600020486007490648C160816074
:101B5000FEF7B8FE002801D0FEF7D2FC10BD000051
:101B60000030004020000020FF0F000010B50E489C
:101B70000E4908604B20C001486000210B4881607D
:101B8000C16001610C21416100218161C16101627B
:101B900041620020054988620846FFF73AFE0028A6
:101BA00001D0FEF7ADFC10BD004400403000002025
:101BB000F848807A8021084000287DD0F6480068E7
:101BC000C07901280BD1F3480078002807D108021A
:101BD000F2498861400005210907886119E0EE4853
:101BE0000068C07902280CD1EA484078002808D162
:101BF0000120C007E94988610120052109078861A2
:101C000007E00120C007E5498861C00B05210907ED
:101C10008861E1480068407D002828D1DE480068DE
:101C2000807901280BD1DB488078002807D101207A
:101C3000C005DB4988614012D8498861C8E1D648AF
:101C40000068807902280AD1D248C078002806D1DD
:101C50008020D3498861C005D0498861B8E101205E
:101C6000C005CF498861C001CC498861B0E1CA484C
:101C70000068407D01280ED0C7480068407D0228DA
:101C800009D0C5480068407D032804D0C2480068D8
:101C9000407D042826D1C0480068407E002821D11C
:101CA000BC48807800280ED1BB480068408B0028D3
:101CB00009D10120C00500E0ADE1B94988614012B9
:101CC000B649886184E1B34880780128B6D1802084
:101CD000B3498861C005B1498861B248AE49096815
:101CE000488375E1AC480068407D012853D1AA487B
:101CF0000068407E01284ED1A7480068408B00282C
:101D00000BD10120C005A6498861C001A3498861A3
:101D10007D204001A049096848839F480068408BA6
:101D2000A14988420BDB9B488078002807D101201D
:101D3000C0059B49886140129849886126E0964811
:101D40000068408B7D21C90088420ADB9148C07839
:101D5000002806D1802092498861C0058F4988619A
:101D600014E08D480068408B00280BDD894880789E
:101D7000002807D10120C0058949886140128749A0
:101D8000886103E00120C005854988610120800742
:101D9000824988611CE180480068407D022851D159
:101DA0007D480068407E01284CD17B480068408B0C
:101DB00000280AD10120C00579498861C00177490E
:101DC00088617A4874490968488373480068408B81
:101DD000774988420BDB6F488078002807D10120C3
:101DE000C0056F49886140126C49886125E06A48E6
:101DF0000068408B6F4988420ADB6648C07800283B
:101E000006D1802066498861C0056449886114E074
:101E100061480068408B00280BDD5E488078002810
:101E200007D10120C0055E49886140125B49886185
:101E300003E00120C0055A49886101208007574905
:101E40008861C5E054480068407D032853D152485A
:101E50000068407E01284ED14F480068408B002822
:101E60000BD10120C0054E498861C0014B498861F2
:101E70007D20800148490968488347480068408BB5
:101E80004A4988420BDB43488078002807D101206B
:101E9000C0054349886140124049886126E03E48B8
:101EA0000068408B7D21090188420ADB3948C078EF
:101EB000002806D180203A498861C00537498861E9
:101EC00014E035480068408B00280BDD31488078ED
:101ED000002807D10120C0053149886140122F49EF
:101EE000886103E00120C0052D4988610120800739
:101EF0002A4988616CE028480068407D042867D141
:101F000025480068407E012862D123480068408B44
:101F100000280AD10120C00521498861C0011F495C
:101F2000886125481C49096848831B480068408B24
:101F3000224988420BDB17488078002807D101200E
:101F4000C005174988614012144988613CE0124875
:101F50000068408B134988420ADB0E48C07800288D
:101F600006D180200E498861C0050C4988612BE0AC
:101F700009480068408B002822DD06488078002848
:101F80001ED10120C00506498861401203498861BD
:101F90001AE01DE00C0200200C0000200008005098
:101FA00000040050C4090000B80B000070170000C6
:101FB00094110000DC050000102700004C1D0000FB
:101FC0000120C0051F498861012080071E498861E2
:101FD0001E480068007A012807D102200521090760
:101FE00088618004174988612AE018480068007AEF
:101FF000022807D10004052109078861082011493A
:1020000088611DE0012040040521090788618000E6
:102010000C49886114E00120C0070B498861C00B9E
:10202000052109078861C00106498861C001064988
:102030008861401305210907886180000149886192
:102040007047000000040050000800500C00002001
:1020500010B5102105200007FEF714FC002802D15E
:102060002349087002E00120214908702021052041
:102070000007FEF707FC002802D11D49487002E066
:1020800001201B494870402105200007FEF7FAFB9C
:10209000002802D11649887002E001201449887096
:1020A000802105200007FEF7EDFB002802D1104932
:1020B000C87002E001200E49C87001210D48FEF7EA
:1020C000E1FB002802D10A49087102E00120084919
:1020D00008710121C90205200007FEF7D3FB002883
:1020E00002D10349487102E001200149487110BD45
:1020F0000C020020000400500168496A43894268CC
:10210000D15401210173C17B81734189491C89B27A
:1021100041810289914201DB00214181704700BF6A
:10212000FEE770477047000010B50246002300200C
:10213000084C207000BF08E01478521C0548007855
:102140002018044C2070581CC3B28B42F4DB0148A9
:10215000007810BD0400002010B50024FEF7F8FB45
:102160002C48015F012904DB0088401E00B2294988
:10217000088028480021415E002909DCFF20F53055
:10218000244908800121090305200007FEF783FB8D
:102190002148408B00280ADD1F48408B401E1E4905
:1021A00048830846408B002801D10120487600244E
:1021B0001CE0200119494018007B012814D120019E
:1021C0004018807B401E2101144A89188873200121
:1021D00011464018807B002806D121018918087318
:1021E0000120210189184873601CC4B2032CE0DB74
:1021F00000240CE0A0000A490858002805D0A000DF
:102200000858401EA100064A5050601CC4B2032C5E
:10221000F0DB10BD000000200C020020C4000020F4
:102220000002002000B591B0342104A8FDF7D4FFCE
:102230000020009001900290039001204002FEF7E0
:1022400017FC0A200490FF2001300790002008901E
:102250004020099001200A9002200B9002210C914D
:1022600000210D9108210E9101040F910107109199
:1022700004A8FEF79FFD002801D0FEF741F90720D2
:1022800000900220019000200290039002216846F5
:10229000FEF71AFC002801D0FEF732F911B000BD9C
:1022A00070470822816A1140082907D101684968EE
:1022B00012039143826B114302685160018DC9077B
:1022C000C90F002908D001684968012252049143CE
:1022D000C26A1143026851600222816A11400229D8
:1022E00007D101684968D2039143026B1143026828
:1022F00051600422816A1140042907D101684968AC
:1023000012049143426B1143026851601022816AAA
:102310001140102907D10168896812029143C26BEC
:102320001143026891602022816A1140202907D15F
:102330000168896812029143026C1143026891603E
:102340004022816A1140402915D1016849689203F1
:102350009143426C11430268516001221205416CA5
:10236000914208D101684968032252059143826C69
:102370001143026851608022816A1140802907D18F
:102380000168496812039143C26C114302685160AD
:1023900070470000F8B50446002190200151FEF777
:1023A0008BFA05462068006808210840082824D1D7
:1023B00038482B46002289040090204600F0C4F9DA
:1023C00000281AD000BF00F0A3FA0646012000F052
:1023D000A2FA20680068802188432168086030469E
:1023E00000F099FA00BF20218820015100BF002190
:1023F0008420015500BF0320F8BD20680068042137
:102400000840042836D123482B46002209050090B5
:10241000204600F099F900282CD000BF00F078FA8F
:102420000646012000F077FA20680068FF2121317C
:10243000884321680860304600F06DFA00BF00BF95
:1024400000F066FA0646012000F065FA2068806810
:102450004008400021688860304600F05CFA00BF08
:1024600020218C20015100BF00218420015500BF94
:102470000320C1E72021882001518C200151002038
:10248000E066206700BF00218420015500BF0020C6
:10249000B2E70000FFFFFF0170B50446A56A2846B9
:1024A000FEF77EFF70BD000070B5044600BF00F06F
:1024B0002FFA0546012000F02EFA20680068FF215F
:1024C0002131884321680860284600F024FA00BFC3
:1024D00000BF00F01DFA0546012000F01CFA20683C
:1024E00080681149084021688860284600F013FA86
:1024F00000BFE06E012810D100BF00F009FA0546C8
:10250000012000F008FA2068006810218843216843
:102510000860284600F0FFF900BF20218C200151FF
:102520000020E066606770BDFEFFFFEF70B50446F7
:1025300000BF00F0EDF90546012000F0ECF920683D
:1025400000684021884321680860284600F0E3F9CC
:1025500000BF2021882001510020A0672046FFF7FE
:1025600062FA70BDF0B585B0044600200190216983
:10257000A068084361690843E16908430390206843
:102580000068694908400399084321680860206889
:102590004068032109038843E168084321684860D3
:1025A000A0690390206A039908430390206880681B
:1025B0005E49084003990843216888602068C06A22
:1025C00000090001616A08432168C86200BF5849D8
:1025D0002068884217D1574840698007800F00283B
:1025E00006D0012808D0022804D0032808D105E02D
:1025F000002707E0022705E0042703E0082701E0A1
:10260000102700BF06E04C492068884201D100270E
:1026100000E0102700BF0121C903E069884241D1D1
:10262000002F06D0022F08D0042F08D0082F0DD17C
:1026300009E0FEF739FB05460CE0404D0AE0FEF7E5
:1026400047FB054606E00125ED0303E000250120D8
:10265000019000BF00BF002D5BD0606A4000384A87
:10266000115A2846FDF7BAFD400061684908401834
:1026700000906168FDF7B2FD0646102E0FD3314879
:1026800086420CD82F480F38304002903007400F58
:1026900002990843029002982168C86039E001203D
:1026A000019036E0002F06D0022F08D0042F08D06A
:1026B000082F0DD109E0FEF7F7FA05460CE01F4D93
:1026C0000AE0FEF705FB054606E00125ED0303E001
:1026D00000250120019000BF00BF002D19D0606AC5
:1026E0004000174A115A2846FDF778FD61684908ED
:1026F000401800906168FDF771FD0646102E06D364
:102700001048864203D8B0B22168C86001E00120B9
:10271000019001216A200153682001530020606765
:10272000A067019805B0F0BDF369FFCFFFF4FF117A
:102730000038014040100240004400400024F400F2
:1027400074290008FFFF0000FFB581B004460D4664
:1027500017460A9E46E0701C002843D0FEF7ACF8EE
:102760000499401AB04201D8002E02D1032005B0CE
:10277000F0BD2068006804210840002832D0802D78
:1027800030D0402D2ED02068C06908210840C008F4
:1027900000280FD00820216808622046FFF784FE39
:1027A00008219020015100BF00218420015500BF65
:1027B0000120DCE72068C0690121C9020840C00A85
:1027C00000280FD00846216808622046FFF76CFEFB
:1027D00020219020015100BF00218420015500BF1D
:1027E0000320C4E72068C0692840A84201D1012025
:1027F00000E00020B842AED00020B8E710B507488E
:102800000068C069202108404009002802D004481F
:10281000FFF772FC0148FEF7C5FD10BD3000002037
:10282000E40000200A480B4908610B49094841614E
:10283000802101830221C1770848064908620849BE
:10284000044841628021018503212030C173704713
:1028500000380140C4000020F40000200044004083
:1028600074010020002004494875C8758875C87136
:1028700008728871704700000C02002030B4744662
:10288000641E2578641CAB4204D3635D5B00E318CF
:1028900030BC18471D46F8E710B5002819DB1A4A66
:1028A00003231B02D21883089B00D2588307DC0E37
:1028B000FF23A3409A438B071B0E8407E40EA3401B
:1028C0001A43114B032424021B198408A4001A5133
:1028D00018E00E4A03071B0F083B9B089B00D258C9
:1028E0008307DC0EFF23A3409A438B071B0E84074C
:1028F000E40EA3401A43054B0407240F083CA40828
:10290000A4001A5110BD000000E100E01CED00E041
:10291000EFF31080704780F3108870471CB50E49A4
:1029200003C901910090FEF71FF8FFF77BFCFFF74A
:102930007DF8FFF71BF9FFF701F9FDF7D3FDFFF76E
:1029400091FF08E00548FDF7FBFFFDF7DDFDFFF710
:102950007FFBFFF72DF9F5E768290008200000202C
:10296000081C304458000000313233000000081CBD
:1029700030445800010002000400060008000A006C
:102980000C0010002000400080000001081C3044B2
:1029900058000000000000000000000000000000DF
:1029A0000000000000000000000000000000000027
:1029B0000000000001000000020000000300000011
:1029C00004000000060000000700000008000000EE
:1029D00009000000000000000000000000000000EE
:1029E00000000000010000000200000003000000E1
:1029F00004000000142A000800000020200000004D
:102A000004010008342A000820000020700800009B
:102A100020010008F4010000000000000000000098
:102A20000C02002000000000040000000100000073
:042A30000024F4008A
:04000005080000C12E
:00000001FF
